:0C0000000C9431000C9400000C945E0085
:10000C000C9400000C9400000C948C000C940000D8
:10001C000C9400000C9400000C9400000C94000054
:10002C000C946E000C9400000C9400000C940000D6
:10003C000C9400000C9400000C9400000C94000034
:10004C000C9400000C94000000000000000006005E
:10005C00040054000000F894EE27ECBBF1E0FBBF69
:10006C00EBBFE5BF8DE0A2E0BB27ED938A95E9F7E6
:10007C0080E098E0A0E6ED930197E9F7EAE5F0E07F
:10008C0085919591009761F0A591B591059015908A
:10009C00BF01F00105900D920197E1F7FB01F0CF44
:1000AC00EFE5EDBFE8E0EEBFC0E6D2E00C94A500B2
:1000BC00EA93EFB7EA93E3E0E3BFE5BDE2ECE2BF1E
:1000CC00E3E8E4BD88249924E991EFBFE991189500
:1000DC0058D0E2ECE2BFA0E0B1E04A165B0694F027
:1000EC0044245524A89B02C0A89801C0A89AF401E6
:1000FC0031964F01E1E0F0E0E815F9051CF4E0E081
:10010C00E3BFE5BDF20131962F0112C03AD0E3E80E
:10011C00E4BDA0E8B0E06A167B063CF0A89B02C0E8
:10012C00A89801C0A89A66247724F30131963F0160
:10013C00E991EFBFF991E991B991A9911895E0E096
:10014C00EABBEBBBE7BBE8BBE1E0E4BBE5BBE0E053
:10015C00E1BBE8E0E2BBE2ECE2BFE0E0ECBFE2BD19
:10016C00E3E8E4BDE0E0E3BDE1E4E9BFEBB7E06860
:10017C00EBBFE0E0E5BFE4BFE0E8EABF7894FFCF77
:10018C00FFCFAA93BA93EA93FA93EFB7EA93089541
:00000001FF
